:100E22000A128A11142F03138316871407158715C4
:100E320007168716081088100811881108128812E0
:100E4200081388138312880108140708A5000239C1
:100E5200A600A60C2608A70027090139A700070843
:100E62000439A800A80CA80C2808A90029090139EE
:100E7200A90007080839B000B00CB00CB00C30085B
:100E8200B10031090139B10007081039B200B20CC2
:100E9200B20CB20CB20C3308B30033090139B300FF
:100EA20007082039B400B40CB40CB40CB40CB40C64
:100EB2003408B50035090139B50031082605B600F8
:100EC20031082805B70035083205B8083608370456
:100ED2003804B90034083305C00030082905C100C0
:100EE20031082905C20042082605C3004008410412
:100EF2004304C40033082705C50040084504C60062
:100F020035082705C70047083804F10033083005C3
:100F1200C80048082905C90035083305D000500823
:100F22003105D10051082905D20052082605D30007
:100F320034083305D40054083105D5005508290575
:100F4200D60056082705D700490853045704D8008D
:100F520052082705D90034083205E0006008300540
:100F6200E10061082805E20062082605E30059084D
:100F72006304E40035083105E50065082805E6004C
:100F820038083105E70067082905E80068082605E2
:100F9200E900660853046904F00008103918D22FDA
:100FA200D42F8814D62F8810D62F4418D92FDB2F90
:100FB2000815DD2F0811DD2F4618E02FE22F8815C6
:100FC200E42F8811E42F7118E72FE92F0816EB2F71
:100FD2000812EB2F7018EE2FF02F8816F22F8812BE
:100FE200F22F6418F52FF72F0817F92F0813F92F8E
:0E0FF2005818FC2FFE2F8817252F8813252F47
:02400E00B13FC0
:00000001FF
