:100DAE000A128A11DA2E0313831687140715871574
:100DBE000716871688100811881108128812081352
:100DCE00881383128708A500A5000239A600A60C79
:100DDE0026080139A600A5000239A700A70C27098D
:100DEE0027080139A700A5000439A800A80CA80CF3
:100DFE0028080139A800A5000439A900A90CA90CDE
:100E0E00290929080139A900A5000839B000B00C3C
:100E1E00B00CB00C30080139B000A5000839B10093
:100E2E00B10CB10CB10C310931080139B100A5007A
:100E3E001039B200B20CB20CB20CB20C320801393D
:100E4E00B200A5001039B300B30CB30CB30CB30C45
:100E5E00330933080139B300A5002039B400B40CAE
:100E6E00B40CB40CB40CB40C34080139B400A500A5
:100E7E002039B500B50CB50CB50CB50CB50C350953
:100E8E0035080139B50031082605B60031082805A8
:100E9E00B70035083205B80834083305B9003008F4
:100EAE002905C00031082905C10041082605C200E8
:100EBE0033082705C30035082705C400330830055D
:100ECE00C50045082905C60035083305C700470883
:100EDE003105C80043082905C90049082605D00078
:100EEE0034083305D10051082605D20052082905D1
:100EFE00D30053082705D40035083305D50055080F
:100F0E003105D60056082905D70057082705D80001
:100F1E0034083205D90059083005E000600828056C
:100F2E00E10061082605E20035083105E30063089B
:100F3E002805E40035083205E50065083105E600B0
:100F4E0066082905E70067082705E8003608370414
:100F5E00E90069083804F00039084004F10071080E
:100F6E004204F20039084304F30044083804F40044
:100F7E0046085004F50075085404F600580862043B
:100F8E00F70064085004F80078086804F900880136
:100F9E007018D22FD42F8814D62F8814D62F7218EB
:100FAE00D92FDB2F0815DD2F0815DD2F7318E02F35
:100FBE00E22F8815E42F8815E42F7418E72FE92FF8
:100FCE000816EB2F0816EB2F7918EE2FF02F881638
:100FDE00F22F8816F22F7718F52FF72F0817F92F03
:100FEE000817F92F7618FC2FFE2F8817E92E881771
:020FFE00E92EDA
:02400E00B13FC0
:00000001FF
