:100EE8000A128A11772F031383168714071587159B
:100EF800071687160810881008118811081288121A
:100F0800081388138312880108140708A5000239FA
:100F1800A600A60C2608A70027090139A70007087C
:100F28000439A800A80CA80C2808A9002909013927
:100F3800A90007080839B000B00CB00CB00C300894
:100F4800B10031090139B10007081039B200B20CFB
:100F5800B20CB20CB20C3308B30033090139B30038
:100F680007082039B400B40CB40CB40CB40CB40C9D
:100F78003408B50035090139B50031082605B60031
:100F880031082805B70035083205B808360837048F
:100F98003804B90008103918D22FD42F8814D62F46
:100FA8008810D62F7218D92FDB2F0815DD2F0815BA
:100FB800DD2F7318E02FE22F8815E42F8815E42F12
:100FC8007418E72FE92F0816EB2F0816EB2F79185E
:100FD800EE2FF02F8816F22F8816F22F7718F52F9C
:100FE800F72F0817F92F0817F92F7618FC2FFE2F5F
:080FF8008817882F8817882F45
:02400E00B13FC0
:00000001FF
